{
  "_format": "hh-sol-artifact-1",
  "contractName": "MyTestContract",
  "sourceName": "contracts/MyTestContract.sol",
  "abi": [
    {
      "inputs": [
        {
          "internalType": "string",
          "name": "_some_text",
          "type": "string"
        }
      ],
      "stateMutability": "payable",
      "type": "constructor"
    },
    {
      "inputs": [],
      "name": "EtherTransferFailed",
      "type": "error"
    },
    {
      "anonymous": false,
      "inputs": [
        {
          "indexed": true,
          "internalType": "address",
          "name": "from",
          "type": "address"
        },
        {
          "indexed": false,
          "internalType": "uint256",
          "name": "amount",
          "type": "uint256"
        },
        {
          "indexed": false,
          "internalType": "uint256",
          "name": "time",
          "type": "uint256"
        }
      ],
      "name": "EthReceived",
      "type": "event"
    },
    {
      "anonymous": false,
      "inputs": [
        {
          "indexed": true,
          "internalType": "address",
          "name": "from",
          "type": "address"
        },
        {
          "indexed": false,
          "internalType": "string",
          "name": "oldText",
          "type": "string"
        },
        {
          "indexed": false,
          "internalType": "string",
          "name": "newText",
          "type": "string"
        },
        {
          "indexed": true,
          "internalType": "bytes32",
          "name": "newIndexedText",
          "type": "bytes32"
        }
      ],
      "name": "TextIsChanged",
      "type": "event"
    },
    {
      "anonymous": false,
      "inputs": [
        {
          "indexed": true,
          "internalType": "address",
          "name": "from",
          "type": "address"
        },
        {
          "indexed": false,
          "internalType": "uint256",
          "name": "amount",
          "type": "uint256"
        },
        {
          "indexed": false,
          "internalType": "uint256",
          "name": "time",
          "type": "uint256"
        }
      ],
      "name": "Withdrawn",
      "type": "event"
    },
    {
      "stateMutability": "payable",
      "type": "fallback"
    },
    {
      "inputs": [
        {
          "internalType": "address",
          "name": "_account",
          "type": "address"
        }
      ],
      "name": "getAccountBalance",
      "outputs": [
        {
          "internalType": "uint256",
          "name": "",
          "type": "uint256"
        }
      ],
      "stateMutability": "view",
      "type": "function"
    },
    {
      "inputs": [],
      "name": "getBalance",
      "outputs": [
        {
          "internalType": "uint256",
          "name": "",
          "type": "uint256"
        }
      ],
      "stateMutability": "view",
      "type": "function"
    },
    {
      "inputs": [],
      "name": "getText",
      "outputs": [
        {
          "internalType": "string",
          "name": "",
          "type": "string"
        }
      ],
      "stateMutability": "view",
      "type": "function"
    },
    {
      "inputs": [
        {
          "internalType": "string",
          "name": "_some_text",
          "type": "string"
        }
      ],
      "name": "setText",
      "outputs": [],
      "stateMutability": "nonpayable",
      "type": "function"
    },
    {
      "inputs": [
        {
          "internalType": "uint256",
          "name": "amount",
          "type": "uint256"
        }
      ],
      "name": "withdrawETH",
      "outputs": [],
      "stateMutability": "nonpayable",
      "type": "function"
    },
    {
      "stateMutability": "payable",
      "type": "receive"
    }
  ],
  "bytecode": "0x60806040526040516200165b3803806200165b83398181016040528101906200002991906200039d565b6001600081905550620000616040518060600160405280602581526020016200163660259139826200008160201b6200065d1760201c565b80600190805190602001906200007992919062000150565b5050620004eb565b6200012382826040516024016200009a9291906200044b565b6040516020818303038152906040527f4b5c4277000000000000000000000000000000000000000000000000000000007bffffffffffffffffffffffffffffffffffffffffffffffffffffffff19166020820180517bffffffffffffffffffffffffffffffffffffffffffffffffffffffff83818316178352505050506200012760201b60201c565b5050565b60008151905060006a636f6e736f6c652e6c6f679050602083016000808483855afa5050505050565b8280546200015e90620004b5565b90600052602060002090601f016020900481019282620001825760008555620001ce565b82601f106200019d57805160ff1916838001178555620001ce565b82800160010185558215620001ce579182015b82811115620001cd578251825591602001919060010190620001b0565b5b509050620001dd9190620001e1565b5090565b5b80821115620001fc576000816000905550600101620001e2565b5090565b6000604051905090565b600080fd5b600080fd5b600080fd5b600080fd5b6000601f19601f8301169050919050565b7f4e487b7100000000000000000000000000000000000000000000000000000000600052604160045260246000fd5b62000269826200021e565b810181811067ffffffffffffffff821117156200028b576200028a6200022f565b5b80604052505050565b6000620002a062000200565b9050620002ae82826200025e565b919050565b600067ffffffffffffffff821115620002d157620002d06200022f565b5b620002dc826200021e565b9050602081019050919050565b60005b8381101562000309578082015181840152602081019050620002ec565b8381111562000319576000848401525b50505050565b6000620003366200033084620002b3565b62000294565b90508281526020810184848401111562000355576200035462000219565b5b62000362848285620002e9565b509392505050565b600082601f83011262000382576200038162000214565b5b8151620003948482602086016200031f565b91505092915050565b600060208284031215620003b657620003b56200020a565b5b600082015167ffffffffffffffff811115620003d757620003d66200020f565b5b620003e5848285016200036a565b91505092915050565b600081519050919050565b600082825260208201905092915050565b60006200041782620003ee565b620004238185620003f9565b935062000435818560208601620002e9565b62000440816200021e565b840191505092915050565b600060408201905081810360008301526200046781856200040a565b905081810360208301526200047d81846200040a565b90509392505050565b7f4e487b7100000000000000000000000000000000000000000000000000000000600052602260045260246000fd5b60006002820490506001821680620004ce57607f821691505b60208210811415620004e557620004e462000486565b5b50919050565b61113b80620004fb6000396000f3fe60806040526004361061004e5760003560e01c806312065fe0146100e05780635d3a1f9d1461010b57806393423e9c14610134578063e00fe2eb14610171578063f14210a61461019c576100a5565b366100a5573373ffffffffffffffffffffffffffffffffffffffff167f217c08711b46e0b51f406ee1bf927ab14a2816c116bbac3bfba8ae8cee825b49344260405161009b92919061087d565b60405180910390a2005b6040517f08c379a00000000000000000000000000000000000000000000000000000000081526004016100d790610903565b60405180910390fd5b3480156100ec57600080fd5b506100f56101c5565b6040516101029190610923565b60405180910390f35b34801561011757600080fd5b50610132600480360381019061012d9190610a98565b6101cd565b005b34801561014057600080fd5b5061015b60048036038101906101569190610b3f565b610331565b6040516101689190610923565b60405180910390f35b34801561017d57600080fd5b50610186610352565b6040516101939190610be3565b60405180910390f35b3480156101a857600080fd5b506101c360048036038101906101be9190610c31565b6103e4565b005b600047905090565b6102976040518060400160405280601f81526020017f4368616e67696e6720746578742066726f6d202725732720746f2027257327008152506001805461021390610c8d565b80601f016020809104026020016040519081016040528092919081815260200182805461023f90610c8d565b801561028c5780601f106102615761010080835404028352916020019161028c565b820191906000526020600020905b81548152906001019060200180831161026f57829003601f168201915b5050505050836106f9565b6000816040516020016102aa9190610cfb565b6040516020818303038152906040526102c290610d59565b9050803373ffffffffffffffffffffffffffffffffffffffff167f1cb277c8651a3ee2e1a6312ae1c51a23cd69dc91354685106e4383f9bdd965d460018560405161030e929190610e55565b60405180910390a3816001908051906020019061032c9291906107c1565b505050565b60008173ffffffffffffffffffffffffffffffffffffffff16319050919050565b60606001805461036190610c8d565b80601f016020809104026020016040519081016040528092919081815260200182805461038d90610c8d565b80156103da5780601f106103af576101008083540402835291602001916103da565b820191906000526020600020905b8154815290600101906020018083116103bd57829003601f168201915b5050505050905090565b6002600054141561042a576040517f08c379a000000000000000000000000000000000000000000000000000000000815260040161042190610ed8565b60405180910390fd5b600260008190555080471015610475576040517f08c379a000000000000000000000000000000000000000000000000000000000815260040161046c90610f44565b60405180910390fd5b600073ffffffffffffffffffffffffffffffffffffffff163373ffffffffffffffffffffffffffffffffffffffff1614156104e5576040517f08c379a00000000000000000000000000000000000000000000000000000000081526004016104dc90610fb0565b60405180910390fd5b3073ffffffffffffffffffffffffffffffffffffffff163373ffffffffffffffffffffffffffffffffffffffff161415610554576040517f08c379a000000000000000000000000000000000000000000000000000000000815260040161054b9061101c565b60405180910390fd5b60008190506000915060003373ffffffffffffffffffffffffffffffffffffffff16826040516105839061106d565b60006040518083038185875af1925050503d80600081146105c0576040519150601f19603f3d011682016040523d82523d6000602084013e6105c5565b606091505b5050905080610600576040517f6747a28800000000000000000000000000000000000000000000000000000000815260040160405180910390fd5b3373ffffffffffffffffffffffffffffffffffffffff167f92ccf450a286a957af52509bc1c9939d1a6a481783e142e41e2499f0bb66ebc6834260405161064892919061087d565b60405180910390a25050600160008190555050565b6106f58282604051602401610673929190611082565b6040516020818303038152906040527f4b5c4277000000000000000000000000000000000000000000000000000000007bffffffffffffffffffffffffffffffffffffffffffffffffffffffff19166020820180517bffffffffffffffffffffffffffffffffffffffffffffffffffffffff8381831617835250505050610798565b5050565b610793838383604051602401610711939291906110b9565b6040516020818303038152906040527f2ced7cef000000000000000000000000000000000000000000000000000000007bffffffffffffffffffffffffffffffffffffffffffffffffffffffff19166020820180517bffffffffffffffffffffffffffffffffffffffffffffffffffffffff8381831617835250505050610798565b505050565b60008151905060006a636f6e736f6c652e6c6f679050602083016000808483855afa5050505050565b8280546107cd90610c8d565b90600052602060002090601f0160209004810192826107ef5760008555610836565b82601f1061080857805160ff1916838001178555610836565b82800160010185558215610836579182015b8281111561083557825182559160200191906001019061081a565b5b5090506108439190610847565b5090565b5b80821115610860576000816000905550600101610848565b5090565b6000819050919050565b61087781610864565b82525050565b6000604082019050610892600083018561086e565b61089f602083018461086e565b9392505050565b600082825260208201905092915050565b7f46616c6c6261636b206e6f7420616c6c6f776564000000000000000000000000600082015250565b60006108ed6014836108a6565b91506108f8826108b7565b602082019050919050565b6000602082019050818103600083015261091c816108e0565b9050919050565b6000602082019050610938600083018461086e565b92915050565b6000604051905090565b600080fd5b600080fd5b600080fd5b600080fd5b6000601f19601f8301169050919050565b7f4e487b7100000000000000000000000000000000000000000000000000000000600052604160045260246000fd5b6109a58261095c565b810181811067ffffffffffffffff821117156109c4576109c361096d565b5b80604052505050565b60006109d761093e565b90506109e3828261099c565b919050565b600067ffffffffffffffff821115610a0357610a0261096d565b5b610a0c8261095c565b9050602081019050919050565b82818337600083830152505050565b6000610a3b610a36846109e8565b6109cd565b905082815260208101848484011115610a5757610a56610957565b5b610a62848285610a19565b509392505050565b600082601f830112610a7f57610a7e610952565b5b8135610a8f848260208601610a28565b91505092915050565b600060208284031215610aae57610aad610948565b5b600082013567ffffffffffffffff811115610acc57610acb61094d565b5b610ad884828501610a6a565b91505092915050565b600073ffffffffffffffffffffffffffffffffffffffff82169050919050565b6000610b0c82610ae1565b9050919050565b610b1c81610b01565b8114610b2757600080fd5b50565b600081359050610b3981610b13565b92915050565b600060208284031215610b5557610b54610948565b5b6000610b6384828501610b2a565b91505092915050565b600081519050919050565b60005b83811015610b95578082015181840152602081019050610b7a565b83811115610ba4576000848401525b50505050565b6000610bb582610b6c565b610bbf81856108a6565b9350610bcf818560208601610b77565b610bd88161095c565b840191505092915050565b60006020820190508181036000830152610bfd8184610baa565b905092915050565b610c0e81610864565b8114610c1957600080fd5b50565b600081359050610c2b81610c05565b92915050565b600060208284031215610c4757610c46610948565b5b6000610c5584828501610c1c565b91505092915050565b7f4e487b7100000000000000000000000000000000000000000000000000000000600052602260045260246000fd5b60006002820490506001821680610ca557607f821691505b60208210811415610cb957610cb8610c5e565b5b50919050565b600081905092915050565b6000610cd582610b6c565b610cdf8185610cbf565b9350610cef818560208601610b77565b80840191505092915050565b6000610d078284610cca565b915081905092915050565b600081519050919050565b6000819050602082019050919050565b6000819050919050565b6000610d438251610d2d565b80915050919050565b600082821b905092915050565b6000610d6482610d12565b82610d6e84610d1d565b9050610d7981610d37565b92506020821015610db957610db47fffffffffffffffffffffffffffffffffffffffffffffffffffffffffffffffff83602003600802610d4c565b831692505b5050919050565b60008190508160005260206000209050919050565b60008154610de281610c8d565b610dec81866108a6565b94506001821660008114610e075760018114610e1957610e4c565b60ff1983168652602086019350610e4c565b610e2285610dc0565b60005b83811015610e4457815481890152600182019150602081019050610e25565b808801955050505b50505092915050565b60006040820190508181036000830152610e6f8185610dd5565b90508181036020830152610e838184610baa565b90509392505050565b7f5265656e7472616e637947756172643a207265656e7472616e742063616c6c00600082015250565b6000610ec2601f836108a6565b9150610ecd82610e8c565b602082019050919050565b60006020820190508181036000830152610ef181610eb5565b9050919050565b7f496e73756666696369656e74204554482062616c616e63652100000000000000600082015250565b6000610f2e6019836108a6565b9150610f3982610ef8565b602082019050919050565b60006020820190508181036000830152610f5d81610f21565b9050919050565b7f5a65726f2061646472657373206973206e6f7420616c6c6f7765642e00000000600082015250565b6000610f9a601c836108a6565b9150610fa582610f64565b602082019050919050565b60006020820190508181036000830152610fc981610f8d565b9050919050565b7f497427732074686520636f6e7472616374277320616464726573732e00000000600082015250565b6000611006601c836108a6565b915061101182610fd0565b602082019050919050565b6000602082019050818103600083015261103581610ff9565b9050919050565b600081905092915050565b50565b600061105760008361103c565b915061106282611047565b600082019050919050565b60006110788261104a565b9150819050919050565b6000604082019050818103600083015261109c8185610baa565b905081810360208301526110b08184610baa565b90509392505050565b600060608201905081810360008301526110d38186610baa565b905081810360208301526110e78185610baa565b905081810360408301526110fb8184610baa565b905094935050505056fea2646970667358221220aa0f1ec850dc244cd3f9ef9526ef0f06dccedc0e028ef3ada741ab6a7e7c3a2564736f6c634300080b00334465706c6f79696e672061204d7954657374436f6e7472616374207769746820746578743a",
  "linkReferences": {},
  "deployedLinkReferences": {}
}